:10000000F8FF002011040000DB270000DB270000C0
:10001000DB270000DB270000DB270000DB270000D8
:10002000DB270000DB270000DB270000DB270000C8
:10003000DB270000DB270000DB270000DB270000B8
:10004000DB270000DB270000DB270000DB270000A8
:10040000FFFFFFFFFFFFFFFFFFFFFFFFFEFFFFFFFD
:1004100062B602F06BFFFEE72DE9F04FA1B0824615
:10042000002017461D4602910B900DF1440B6FF012
:1004300000490AE017F8011B0298D04702900028F3
:1004400000F0A2820B98401C0B90387808B90B98EA
:100450009CE22528EED10020059006900790089098
:1004600009900A9001E040F0010017F8011F2029CF
:10047000F9D023290DD02B2904D02D2906D03029DD
:100480000AD00CE040F0020080B2EEE740F0040039
:10049000FAE740F00800F7E740F01000F4E72A29F7
:1004A0000ED12968296051F8042B2960002A0D9289
:1004B00004D5514240F004000D9180B27F1C11E040
:1004C00000210D9109E00D99494505D001EB81030B
:1004D00002EB430130390D917F1C3A78A2F13001D3
:1004E0000A29F0D339782E2903D04FF0FF310C912F
:1004F0001DE017F8011F2A2907D1296829607F1CF0
:1005000051F8042B29600C9211E000210C9109E0B4
:100510000C99494505D001EB810302EB43013039C9
:100520000C917F1C3A78A2F130010A29F0D3ADF882
:1005300038000FF6B820397800F076FD08B117F8CA
:10054000010B8DF83A009DF83A00682802BF39780F
:100550006829622005D06C2804BF38786C2803D144
:1005600071208DF83A007F1C11A8049017F8014BF8
:10057000B4F1250024D02038022840F2C580133879
:1005800000F0EB800B3800F04F81401E00F024811A
:10059000401E022840F2B880001F00F01D81401F5D
:1005A00000F08380401E00F0D880401E29D0C01E7D
:1005B0000CD0801E00F0D180C01E00F0CE803DE146
:1005C0000120059025208DF8440043E1286828602B
:1005D00050F8044B28600394DDF83080B8F1000F28
:1005E00004D5204600F02CFD804607E0424600215D
:1005F000204600F041FD08B1A0EB0408CDF81880BA
:1006000028E1296829604FF03C0851F8040B296063
:100610000021CDE9000111A80390DDE90001049C4F
:1006200011B908B90C9AC2B10206120FA0EB02125E
:100630003032D2B23A2AA8BF27320009A8F101030A
:1006400040EA017009091A5508BF0028984604D0ED
:10065000039A08EB04039A42E6D308EB04000390E4
:10066000C8F13C010C980691814209DA401A0890C1
:100670004FF6EF71BDF838000840ADF83800E9E0FA
:10068000002840F1E7809DF8380000F014001028A1
:1006900040F0E0800D98059A801A089A801A401A56
:1006A0000128C0F2D7800890D4E09DF83A00622873
:1006B0001AD0682806D06A280CD06C281CD0712863
:1006C00008D019E02868286050F8041B28600B98AF
:1006D0000880BFE02868286050F8042B28600B9839
:1006E000C117C2E90001B5E02868286050F8041B72
:1006F00028600B980870ADE02868286050F8041B4B
:1007000028600B980860A5E02868C01D20F007024B
:100710002A60D2E9000108322A60CDE900010029EF
:1007200003D5012005902D200CE0BDF8380081078D
:1007300003D5012005902B2004E0C00704D501203B
:10074000059020208DF84400059911A80818039001
:10075000214600A800F0D8F97CE09DF83A206C2AE8
:100760000DD0712A18BF6A2A09D12868C01D20F04F
:1007700007032B60D3E9000108332B6005E02968EB
:10078000296051F8040B29600021CDE90001682A95
:1007900008BF80B207D0622A08BFC0B203D0742A53
:1007A00018BF7A2A02D10021CDE900019DF8380056
:1007B000000730D5DDE90001002908BF00282AD054
:1007C00044F02000782826D130208DF844008BF8A2
:1007D0000140022005901EE09DF83A00294600F0F5
:1007E000D8F8CDE90001002904DA0598411C0591EB
:1007F0002D210EE0BDF83800810704D50598411C75
:1008000005912B2105E0C00705D50598411C0591F0
:10081000202100F80B10059911A808180390214613
:1008200000A800F0EDF815E0012005902868286088
:1008300050F8041B28608DF844100BE0012005904F
:100840002520002C8DF8440004D00598411C05910A
:1008500000F80B400D980599401A0899401A06991E
:10086000401A0999401A0799401A0A99A0EB010801
:100870009DF8380040070FD420208DF84000002458
:1008800008E0012310AA00A9504600F098FB0028B8
:100890007AD1641C4445F4DB059C11AE0AE016F8DD
:1008A000011B0298D047029000286DD00B98401C85
:1008B0000B90641E002CF2D130208DF840000026F1
:1008C000089C08E0012310AA00A9504600F077FB1D
:1008D000002859D1761CA642F4DB069C039E0AE050
:1008E00016F8011B0298D047029000284CD00B98B4
:1008F000401C0B90641E002CF2D130208DF840007B
:100900000026099C07E0012310AA00A9504600F028
:1009100056FBC8BB761CA642F5DB03980699079CDC
:100920000E1809E016F8011B0298D047029058B340
:100930000B98401C0B90641E002CF3D130208DF8D6
:10094000400000260A9C07E0012310AA00A9504697
:1009500000F035FBC0B9761CA642F5DB9DF83800E7
:1009600040077FF572AD20208DF84000002400E0A4
:10097000641C4445BFF669AD012310AA00A9504686
:1009800000F01DFB0028F3D04FF0FF3021B0BDE890
:10099000F08F622826D068281DD06A2808D06C28DD
:1009A00027D0712804D0742823D07A280CD020E0D6
:1009B0000868C01D20F007000860D0E90023083057
:1009C00008601946104670470A680A6052F8040B1E
:1009D0000A60002170470A680A6052F8040B0A6036
:1009E00000B20BE00A680A6052F8040B0A6040B2D9
:1009F00004E00A680A6052F8040B0A60C1177047E5
:100A00002DE9FA4E05460A462F696F2A08BF0824C9
:100A100005D041F02000782814BF0A2410243C2679
:100A2000D5E90001642A18BF692A81468A4605D1A2
:100A3000002903DAD9F100096AEB4A0ABAF1000F7A
:100A400008BFB9F1000F0CD1286B50B9082C36D172
:100A500095F83800000732D530203B2687F83B0058
:100A60002DE0E31748465146224600F031FBA4FB37
:100A70000023A9EB02023032D2B2A6F1010B3A2ACE
:100A80005E4603DB9DF80030513B9A1881465FEAD1
:100A9000010A0BF8072008BFB9F1000F03D0E8687E
:100AA000F1198842DDD3082C09D195F838000007E8
:100AB00005D5F05D302802D0761E3020F055C6F105
:100AC0003C00A861F119E960296B884208DA081A2C
:100AD00028624FF6EF71288F08402887BDE8F38E13
:100AE00000290ED595F8381001F01401102908D10D
:100AF000696B6A69891A2A6A891A081A0128A8BFC3
:100B00002862BDE8F38E00002DE9F34F8BB0D0E9E9
:100B10000089006B002801AF48BF062005D404BF40
:100B200041F02000672802D101200B99086340F2B0
:100B3000FF720B984168C1F30A50904220D108031C
:100B400002BF0B98006800280AD10B990320886126
:100B50009DF8300061381A2858D30FF2A44109E0FB
:100B60000B99032088619DF8300061381A284AD318
:100B70000FF284410B98C068032200F021FB00E1D2
:100B8000012807DA0B9800F056FB012802DB00234E
:100B90000026EDE00B9ADFF854B1526840F2FE31C6
:100BA00061F31E520B994A6040F2FE31461A4046EC
:100BB00049460022002300F05FFB38BF89F000495E
:100BC00036B247F297507043494990FBF1F636B27E
:100BD000C6F10707012F92461BDBF80707D55246DF
:100BE0005B464046494600F05FFB804689467F10E1
:100BF0005046594652465B4600F056FB002F82464F
:100C00008B46EAD126E00FF2EC31B3E70FF2EC317C
:100C1000B0E77F420024374D12E0F80707D552466F
:100C20005B462046294600F03FFB04460D467F10F8
:100C30005046594652465B4600F036FB82468B468C
:100C4000002FEAD14046494622462B4600F0FEFBE3
:100C5000804689469DF830000B99DFF89CB0096BFF
:100C600040F02005662D0CBF06F10A00062047184B
:100C7000142FA8BF132730208DF804000DF10504B0
:100C8000012F3BDB4046494600F004FD014604F1DC
:100C9000080204234FF00A0CB1FBFCFC0CEB8C04A3
:100CA000A1EB4401303102F8011D0A21BCFBF1FE29
:100CB0000EEB8E04ACEB440430345B1E714602F83C
:100CC000014DE7D1083F012F02F10804D8DB00F005
:100CD00001FD02460B464046494600F009FD002250
:100CE0005B4600F0E1FA80468946CBE700002440ED
:100CF000A08601000000F03F84D797410DF1050068
:100D0000201A0DF1050702E0401E761E7F1C39787F
:100D10003029F9D0662D02D136B2711C03E0652D61
:100D20000CBF012100210B9A126B8B181BB2984249
:100D3000B8BF03461BB219001AD4814204DAC85D59
:100D40003528A8BF392000DA3020CA19521E00E029
:100D50005B1E12F80159491E8542F9D0392802D18B
:100D6000C85D401CC855002902D57F1E5B1C761C3F
:100D700036B29DF830100B9800961BB23A4600F040
:100D800003F80DB0BDE8F08F2DE9F04786B00646B8
:100D90008A4690461D4600F088FD406A376B90F801
:100DA0000090012D02DA01250FF258284AF02000A8
:100DB000BDF93840662808BF641C13D0672840F08E
:100DC000888014F1040F73DBBC4271DA96F83800A6
:100DD000641C000702D4BD42B8BF2F4624B23F1B9B
:100DE00048BF002724B2F068B169012C21DA4A1CFF
:100DF00030230B54012F03DA96F83810090702D577
:100E000002F80090521CE742B8BF7C4224B2614213
:100E1000E719AF42B261B8BF3D4671622DB2F561CC
:100E20002A46B3694146181800F0CAF9781BB06227
:100E3000AEE00818A54216DA2A46414600F0C0F98D
:100E4000B1696918601BB161012F706203DA96F80D
:100E50003800000705D5F06801F80090F069401CE3
:100E6000F061B76294E02246414600F0A9F9B0690A
:100E700020182D1B012F03DA96F83810090703D527
:100E8000F16800F80190401CB0612DB2AF42B8BFCC
:100E90003D46F068B3692DB22A4604EB08011818E4
:100EA00000F08EF9B0692818B061781B70626FE0AD
:100EB000BD4204DA96F83810090758BF2F467F1E46
:100EC00048BF0027BAF1670F0CBF4FF0650A4FF01B
:100ED000450AB169F06818F8013B0B544A1C012F10
:100EE00005DA96F83810090758BFB26115D502F82F
:100EF0000090531C012FB3610FDB6D1E2DB2AF426A
:100F0000B8BF3D462DB22A464146181800F058F9A0
:100F1000B0692818B061781B7062F068B16901EBA4
:100F20000008200008F801AB03D42B2008F8010BBF
:100F300003E02D2108F8011B6442002502AF08E000
:100F40000A2200A800F0CAFC019807F8010B6D1CEA
:100F5000009C21B20129F3DA022D06DA4AF02000C2
:100F6000652804BF302008F8010B4DB9302008F87F
:100F7000010B07E06D1E02A8285C303008F8010B59
:100F8000012DF7DAF068B1690818A8EB0000F061EC
:100F900096F8380000F0140010280DD17069B1697E
:100FA0000818716A0818F1690818B16A0818716B95
:100FB0008842BCBF081A306206B0BDE8F087F8B5B9
:100FC00004460D4616461F46002004E0E86A401C11
:100FD000E8627F1E002047B116F8011BA868A047F1
:100FE000A8600028F2D14FF0FF30F2BD686A6C743F
:100FF0007A4C00006E616E004E414E00696E6600D4
:10100000494E4600300050F8041B61B150F8042BE3
:10101000D30744BFA9F101039A180023091F42F81E
:10102000043BFAD1EFE770470278C9B28A421AB19D
:101030001CBF10F8012FF9E718BF0020704700000F
:1010400000F10103810704D010F8011B89B1810769
:10105000FAD10268B2F10131914311F0803F04BF2F
:1010600050F8042FF6E710F8011B11B110F8011B1E
:10107000FBE7C01A70470000C9B2830706D0521EB2
:1010800022D310F8013B9942F7D11FE0083A13D35D
:1010900002F1040241EA012141EA014150F8043B16
:1010A000121F21BF4B40A3F1013C2CEA030C1CF0A2
:1010B000803FF3D0C9B2001F083210F8013B521E26
:1010C00028BF91EA030FF8D818BF0120401E7047CF
:1010D0001B4213D1094236D12AB18446B0FBF2F04B
:1010E00002FB10C2704700F001BCFCD300220023B9
:1010F00070470B000200002100207047904271EB06
:10110000030CF6D370B5B1FA81F4B3FA83F52C1B56
:10111000A340C4F1200532FA05F63343A2405FF044
:101120000046E64002E05B085FEA3202841A71EB97
:10113000030524BF204629467641F4D302000B0064
:101140003000002170BD012ACFD970B5140C20D019
:10115000B1FA81F4B2FA82F5C4F120046419B4F151
:101160002006D6D3B2405FF00044F440002502E0F0
:1011700052085FEA3303C61A71EB020E24BF3046F1
:10118000714664416D41F3D302000B002000290039
:1011900070BD0C46B1FBF2F102FB11452D0445EA8E
:1011A0001045B5FBF2F402FB145580B240EA054548
:1011B000B5FBF2F002FB105240EA044070BD0000A3
:1011C00062B38B0708D0521E11F8013B00F8013BB7
:1011D00000F024808B07F6D1830740F0208000BF09
:1011E000103A07D330B4B1E83810103AA0E83810FC
:1011F000F9D230BC530724BFB1E80810A0E80810AA
:1012000044BF51F8043B40F8043BD20724BF31F8F7
:10121000022B20F8022B44BF0B7803707047083A6A
:1012200007D3B1E80810083A40F8043B40F804CB73
:10123000F7D25307E4E730B4436803F000420121DA
:101240001B031B0B436004BF0368002B08D10DE098
:101250000368DD0F45EA440444605B000360491EF7
:101260004468E302F4D523031B0B436043681A432D
:101270004260084630BC70474FF4001C1CEB410F25
:1012800094BF1CEB430F09E041EA030C50EA4C0CFD
:1012900052EA0C0C03D2994208BF9042704714BF27
:1012A0008B42824270470000B0B581EA030C0CF01B
:1012B000004C40F2FF7515EA11541DBF15EA135793
:1012C000AC42AF4239E0E41923EA455343F48013BA
:1012D000C90241F0004141EA505EC7021100A7FB7C
:1012E000020200284FF00000EEFB01204FF0000149
:1012F000E3FB072118BF42F00102401800214941D9
:10130000E3FB0E01A4F580640F0302D252004041BA
:10131000494154F101046CDD470872F1004250F17B
:10132000000051EB0451A1F580115CBF41EA0C01B2
:10133000B0BD4CEA05510020B0BD05EA1357AC42E0
:1013400014BFAF4241E050EA410E1CBF52EA430EC7
:1013500002E061460020B0BD24423C441BD15FEA5C
:10136000070EF6D0090302BF01460020AEF1140EAD
:10137000B1FA81F7AEEB070401FA07FE0C37C7F1AB
:10138000200100FA07F7C8404EEA000E23EA455351
:1013900043F48013A2E733F00043B3FA83F704BFAA
:1013A000B2FA82FE77440B3FE41BB7F1200E2FBF49
:1013B00002FA0EF3BB40C7F1200E22FA0EFE38BF30
:1013C00043EA0E03BA40641C82E750EA410E14BFA0
:1013D00052EA430E6FF000014FF4001717EB430F72
:1013E0008ABF194617EB410FB5E74CEA05510020BB
:1013F000B0BDD4F10104B4F120070FDAC4F1200725
:10140000520828BF42F0010210FA07F501FA07F767
:10141000E1BF2A43E0403843E1400FE0352C98DC3F
:10142000C7F1200452EA400220FA07F218BF42F046
:10143000010231FA07F0A1400A43002172F1004293
:1014400050F1000051EB0C01B0BD0000F0B540F2CE
:10145000FF7581EA030C0CF0004C15EA11541DBF16
:1014600015EA1357AC42AF42E5E0BC41C1F31301AA
:10147000C3F31303801A994143F4801304D2641E0A
:101480004000494180185941C90241EA5051B1FB1D
:10149000F3F603FB1611A2FB0675D7EBC020A9419A
:1014A00002D2761E80185941C90241EA5051B1FB5F
:1014B000F3FE03FB1E11A2FB0E75D7EBC020A94162
:1014C00003D2AEF1010E80185941890241EA9051D0
:1014D000760546EA8E2EB1FBF3F603FB1611A2FB4E
:1014E0000675D7EB8020A94102D2761E801859419B
:1014F000C90241EA50514EEA060EB1FBF3F603FB76
:101500001611A2FB0675D7EBC020A94102D2761EA8
:1015100080185941C90241EA5051B1FBF3F703FB6E
:101520001711A2FB0735D3EBC020A94167F10007D3
:101530000CBF004247F0010766F3D5274FEA1E3182
:10154000B80814F5806412DDBD0775F1004250EB58
:101550000E5051EB045111F5801F5CBF41EA0C01A4
:10156000F0BD4CF07F6141F0E0410020F0BDBD07CF
:101570006D0840EA0E5041F48011D4F10104B4F139
:1015800020060ADAC4F120060200E04001FA06F360
:10159000E1401843B24015430EE0342C13DCC6F191
:1015A000200445EA40056D0820FA06F2154321FAA9
:1015B00006F0A1400D43002175F1004250F10000FA
:1015C00051EB0C01F0BD00205FEA0C01F0BDCFB97A
:1015D00092185B41B3FA83F704BFB2FA82F6BF19DF
:1015E0000B3FB7F120062FBF02FA06F3BB40C7F14D
:1015F000200622FA06F638BF3343BA401CB1E4197C
:10160000641E33E77F4231F00041B1FA81F404BF38
:10161000B0FA80F6A4190B3CB4F120062FBF00FAF3
:1016200006F1A140C4F1200620FA06F638BF314386
:10163000A0403C1B1AE7AC421ABF05EA1357AF4261
:1016400012E050EA41061CBF52EA4306BFE750EAE7
:101650004107304661461CBF41EA0551F0BD52EAE0
:10166000430C08BFC143F0BD00204FF4001616EB39
:10167000410F98BF16EB430F08BF16EB410F24BF75
:10168000C14305E016EB430F0CBF61464CEA055120
:10169000F0BD0000400D40EAC120490080F00D80FF
:1016A00040F00040490DA1F58061491C05D4D1F1FD
:1016B0001F0154BFC840C01770474FF0000070476B
:1016C000010040F10980F446404200F005F851F075
:1016D00000416047010000BF09D0B0FA80F18840A6
:1016E000C91CC1F58461090501EBD0214005704793
:1016F00070B44FF0004591EA030F44BF6B4000F017
:10170000F7B800BF841A71EB030604D26E40001BC9
:10171000B141121973414FF4001C1CEB410F34BF4F
:101720007CEB430684E00C0DA4EB1356362E7DDCD7
:10173000012E43DC45EAC32343EA525312BFD202CF
:1017400092025B08240545EAC12141EA5051D2EBDF
:10175000C020994125D407D1B0FA80F610FA06F1DD
:1017600064D00020203608E0B1FA81F6B140C6F11D
:10177000200220FA02F21143B0404FEAF474B4EBB5
:10178000465434F001064FEA74040AD8D6F5001620
:10179000760D04F00044F04061FA06F25040F1404A
:1017A0004840C00A40EA415021F0004128BF5FEAAA
:1017B000500550F1000044EBD12137E045EAC32346
:1017C000DB0A45EAC121C90AB6F120050EDD42EA6D
:1017D0000242120CC5F1200603FA06F6EB4042EA7B
:1017E00006056D42984161F100010DE062FA06F5CF
:1017F000F240554063FA06FC82EA0C02F3405A407C
:101800006D42904161EB030111F4801F05D1641E0C
:10181000620502D06D004041494121F48011430826
:1018200075F1004350F1000041EB045170BC70476A
:101830001CEB410F15D223F0004352EA43060BD0B4
:101840004FEA4C0CBCEB410F04D80C0D661E342E35
:10185000B7DDEBE7801A994150EA410608BF002145
:10186000E4E708BF1CEB430F28BF6FF00001DDE782
:1018700080B5134800F0A6F80FF2480101604160FE
:101880008160C1600161416181610FF23C0242628D
:101890008162C162016341630FF2300282630FF221
:1018A0003402C2630164416401BD10B5044800F014
:1018B00089F80446206808B9FFF7DAFF204610BD12
:1018C000600EFF1F000000002E00000066616C73B8
:1018D00065000000747275650000000091FBF2F372
:1018E00003FB1211C0E9003170470000704700008F
:1018F000841A71EB030603D2001BB1411219734124
:101900004FF4001C1CEB410F34BF7CEB430443E05D
:101910000C0DA4EB1356352E50DC45EAC323DB0A2D
:1019200045EAC121C912B6F120050DDD63FA05F6BD
:10193000EB4086EA0305124218BF45F00105C018C6
:1019400051F100010CD213E062FA06F5F240554065
:10195000F3415A40B340F3405A408018594107D3ED
:1019600049085FEA30005FEA350528BF45F0010508
:1019700001F58011420875F1004250F1000041EB81
:10198000045170BC4FF4001C1CEB410F38BF704772
:101990000020090D090570471CEB410F10D252EAD7
:1019A00043060BD0BCEB410F05D80C0DAB43661EB4
:1019B000342EB5DD02E0AB438018594170BC70474E
:1019C00070BC70477047000000000000000000007D
:1019D0000000000000000000000000000000000007
:1019E0000000000000004E6F6E4D61736B61626C11
:1019F0006500000000486172644661756C74000007
:101A0000000000004D656D4D616E6167656D656E2E
:101A10007400004275734661756C7400000000002C
:101A2000000055736167654661756C7400000000C5
:101A300000000000000000000000000000000000A6
:101A40000000000000000000000000000000000096
:101A50000000000000000000000000000000000086
:101A6000000000000000000000000000005356438A
:101A7000616C6C00000000000000000044656275AD
:101A8000674D6F6E69746F72000000000000000007
:101A90000000000000000000000050656E64535616
:101AA0000000000000000000005379735469636B6C
:101AB0000000000000000000444D41300000000024
:101AC00000000000000000444D4131000000000013
:101AD000000000000000444D413200000000000002
:101AE0000000000000444D413300000000000000F1
:101AF00000000000444D41340000000000000000E0
:101B0000000000444D4135000000000000000000CE
:101B10000000444D413600000000000000000000BD
:101B200000444D41370000000000000000000000AC
:101B3000444D413800000000000000000000004457
:101B40004D41390000000000000000000000444D3D
:101B500041313000000000000000000000444D4111
:101B6000313100000000000000000000444D413110
:101B70003200000000000000000000444D413133FD
:101B800000000000000000000000444D413134001E
:101B9000000000000000000000444D41313500000D
:101BA0000000000000000000444D415F4572726F6C
:101BB000720000000000004D434D000000000000D6
:101BC0000000000000004654464C000000000000E9
:101BD0000000000000526561645F436F6C6C6973C4
:101BE000696F6E004C56445F4C5657000000000071
:101BF0000000004C4C5700000000000000000000F6
:101C000000005761746368646F67000000000000A3
:101C100000524E47000000000000000000000000DD
:101C2000493243300000000000000000000000497D
:101C3000324331000000000000000000000053505B
:101C4000493000000000000000000000005350492F
:101C50003100000000000000000000005350493235
:101C6000000000000000000000000043414E305F13
:101C70004F525F4D425F6275660043414E305F4296
:101C800075735F4F666600000043414E305F4572DA
:101C9000726F72000000000043414E305F54785F65
:101CA0005761726E696E6743414E305F52785F577D
:101CB00061726E696E6743414E305F57616B655F5D
:101CC00055700000005265736572766564353100A9
:101CD000000000005265736572766564353200005D
:101CE00000000043414E315F4F525F4D425F6275CD
:101CF000660043414E315F4275735F4F6666000078
:101D00000043414E315F4572726F72000000000067
:101D100043414E315F54785F5761726E696E67431D
:101D2000414E315F52785F5761726E696E67434111
:101D30004E315F57616B655F5570000000526573EF
:101D40006572766564353900000000005265736580
:101D50007276656436300000000000554152543000
:101D60005F52585F54580000000055415254305F94
:101D700045525200000000000055415254315F525C
:101D8000585F54580000000055415254315F45528D
:101D90005200000000000055415254325F52585F1B
:101DA00054580000000055415254325F45525200D1
:101DB000000000000055415254335F52585F5458A0
:101DC0000000000055415254335F4552520000005C
:101DD00000000055415254345F52585F545800007F
:101DE000000055415254345F45525200000000003B
:101DF0000055415254355F52585F5458000000005E
:101E000055415254355F45525200000000000041D8
:101E10004443300000000000000000000000414486
:101E200043310000000000000000000000434D505E
:101E3000300000000000000000000000434D503161
:101E40000000000000000000000000434D50320080
:101E50000000000000000000000046544D3000006B
:101E600000000000000000000046544D310000005A
:101E7000000000000000000046544D320000000049
:101E800000000000000000434D540000000000006E
:101E90000000000000005254430000000000000059
:101EA0000000000000526573657276656438330087
:101EB0000000000050495430000000000000000005
:101EC00000000050495431000000000000000000F4
:101ED00000005049543200000000000000000000E3
:101EE00000504954330000000000000000000000D2
:101EF0005044423000000000000000000000005587
:101F00005342300000000000000000000000555364
:101F100042444344000000000000000000454E45DC
:101F2000545F313538385F54696D6572454E45549C
:101F30005F5472616E736D69740000454E45545F65
:101F400052656365697665000000454E45545F45FE
:101F500072726F72000000000049325330000000BE
:101F6000000000000000000053444843000000004F
:101F70000000000000000044414330000000000069
:101F80000000000000004441433100000000000058
:101F90000000000000545349300000000000000021
:101FA000000000004D43470000000000000000005A
:101FB0000000004C5054696D657200000000000084
:101FC000000052657365727665643130320000003E
:101FD00000504F525441000000000000000000007B
:101FE000504F52544200000000000000000000501A
:101FF0004F52544300000000000000000000504F0A
:1020000052544400000000000000000000504F52F5
:102010005445000000000000000000005265736598
:102020007276656431303800000000526573657265
:102030007665643130390000000052657365727650
:102040006564313130000000005265736572766559
:102050006431313100000000526573657276656449
:10206000313132000000005265736572766564316B
:10207000313300000000526573657276656431315A
:102080003400000000526573657276656431313545
:102090000000000052657365727665643131360068
:1020A0000000005265736572766564313137000057
:1020B0000000526573657276656431313800000046
:1020C0000052657365727665643131390000000035
:1020D00000F00F4040F00F4080F00F40C0F00F4084
:1020E00000F10F4066000A1D32000701640007106E
:1020F0006E000406780004088200040A8C00040CB8
:102100009600040EA0000410AA000412B4000414E7
:10211000BE000416C8000418D200041ADC00041C17
:10212000E100041DE600041EEB00041FF400031789
:10213000FA000318130101062C010214000109081A
:102140000090044000A0044000B0044000C00440DF
:1021500000D0044000C0024000D0024000C00A404D
:1021600000A0064000B0064000C0064000D0064077
:1021700000A00E4000B00E406A6E6B6C676D4E4F53
:1021800034353637020401010C0EFF1F5C0EFF1FB1
:102190000C0EFF1F0C0EFF1F0C0EFF1F090CFF1F64
:1021A000F00BFF1F00000000000000000000000016
:1021B000000000000000000000000000000000001F
:1021C000000000002DE9FC4F97B004000D00DFF87F
:1021D000380400684FF47A7148431899B0FBF1F065
:1021E000019006A8DFF824144022FEF7F9FF05A8A5
:1021F000DFF81C140A680260002002905FF0FF39CB
:1022000064B2002C41D1DFF80C04006850F4805017
:10221000DFF8001408604FF40071452000F006FA62
:102220004FF40071462000F001FA4FF4007147208E
:1022300000F0FCF9E80704D54FF40071442000F0E9
:10224000F5F9A80704D54FF40071432000F0EEF92A
:10225000680704D54FF40071422000F0E7F9280721
:1022600004D54FF40071412000F0E0F9E80604D5F0
:102270004FF40071402000F0D9F9A8066AD54FF458
:102280004071372000F0D2F964E064B2012C33D100
:10229000DFF88003006850F40050DFF8781308601E
:1022A0004FF40071822000F0C1F94FF400718120D9
:1022B00000F0BCF94FF40071832000F0B7F9E80793
:1022C00004D54FF40071842000F0B0F9A80704D5BC
:1022D0004FF40071802000F0A9F9680704D54FF48D
:1022E0000071852000F0A2F9280733D54FF4007162
:1022F000862000F09BF92DE064B2022C25D1DFF896
:102300001803006850F48050DFF80C1308604FF495
:102310000071352000F08AF94FF40071362000F08A
:1023200085F94FF40071372000F080F9E80704D5F3
:102330004FF40071342000F079F9A8070AD54FF462
:1023400000716F2000F072F904E07B21DFF8CC020D
:1023500000F0D9F940F60140DFF8C41264B251F838
:1023600024100860DFF8BC02DFF8B41264B251F840
:102370002410C8629DF95C00002840F0A380DFF8BB
:10238000A802DFF89C1264B251F824100860002003
:102390000600F6B2102E21DA00200700FFB2042F4B
:1023A0001ADA06A8F6B250F8260005A9FFB2795C41
:1023B000484382460198BAEB000000F037FA8046A5
:1023C000C84507D2C146F6B20296FFB20397B9F1EB
:1023D000000F03D07F1CE1E7761CDAE7DFF8280264
:1023E00000684FF47A71484306A9029A51F8221006
:1023F00005AA039B9A5C5143B0FBF1F00490DFF80F
:10240000080200684FF47A7148430499B0FBF1F078
:10241000400801905FF0FF3081460F208DF80100E9
:1024200003208DF80200002083465FFA8BFBBBF18E
:10243000100F2ADA01201BF1010188408246019821
:10244000B0FBFAF0401E40088DF800009DF8000037
:10245000042817DA9DF800004000401C00FB0AFA2F
:102460000198BAEB000000F0E1F98046C84509D2B6
:10247000C1468DF801B09DF800008DF80200B9F159
:10248000000F02D01BF1010BCFE70398000410F4FA
:102490004030029911F00F0108439DF80110090323
:1024A00011F4704108439DF80210890511F44001B0
:1024B000084350F07850DFF8681164B251F82410E6
:1024C000C86007E05FF07850DFF8541164B251F84B
:1024D0002410C860DFF8480164B250F82400006896
:1024E00040084000DFF8381164B251F82410086049
:1024F000049819B0BDE8F08FF0B4049C0025494E53
:10250000474F40B257F82070FE62454E40B256F831
:102510002060366856F44066414F40B257F820704C
:102520003E603F4E40B256F82060F66AB603E6D4ED
:1025300000263500661EB5422FD249B20E0416F4AD
:102540007C16AF5C3E4356F00046354F40B257F81C
:1025500020707E63324E40B256F82060F66AB603B1
:10256000F8D5002B06D02E4E40B256F82060B66B40
:10257000EE5404E02A4E40B256F82060B66B284E66
:1025800040B256F82060F66A56F40036244F40B246
:1025900057F82070FE626D1CCCE749B20E0416F4A9
:1025A0007C16AF5C3E4356F000661D4F40B257F8B4
:1025B00020707E631A4E40B256F82060F66AF6002C
:1025C000F8D5174E40B256F82060F66AB603F8D533
:1025D000002B06D0124E40B256F82060B66BEE5477
:1025E00004E00F4E40B256F82060B66B0C4E40B27D
:1025F00056F82060F66A56F40036094F40B257F894
:102600002070FE62F0BC7047080EFF1FF43A000015
:10261000903C00003C80044030800440F0390000D1
:102620009C0BFF1F00000A1A00003F8010B4294ACB
:1026300012684FF40073C0B24409A3401A43254BFB
:102640001A60254AC0B2431152F82320012310F02A
:102650001F04A340C2F8A0301F4AC0B2431152F871
:102660002320C0B210F01F0342F8231010BC7047A3
:1026700010B4184A12684FF40073C0B24409A34062
:102680001A43144B1A60144AC0B2431152F8232063
:10269000012310F01F04A340C2F8A03031F4E06120
:1026A0000D4AC0B2431152F82320C0B210F01F03EC
:1026B00052F8232012F4E0621143074AC0B24311DA
:1026C00052F82320C0B210F01F0342F8231010BCB0
:1026D0007047000038800440880BFF1FDFF800F0CF
:1026E0003D0CFF1FDFF800F0610CFF1FBFF34F8FA1
:1026F0004648006810F4E0604549084343490860D3
:10270000BFF34F8FFEE738B504000D00002000F046
:1027100091F82A0021003F4800F0C4F8002000F0A2
:10272000A6F84FF47A7000F0EAF8F2E738B5040042
:102730000D00210049B2042000F004FA200032BD4F
:1027400010B50024042000F017FA042000F04AFA23
:10275000002841D1002000F06DF8042000F042FA7A
:10276000012801D101200400002000F080F82A484F
:1027700000F098F84FF4FA7000F0C1F8E4B2012CC0
:10278000EBD1042000F02EFA0028E6D1042000F05E
:1027900029FA002806D1002000F069F8642000F032
:1027A000AEF8F3E7042000F01DFA012806D100205E
:1027B00000F05DF8322000F0A2F8F3E7174800F0CF
:1027C00071F8FFF78BFF642000F099F80020FFF705
:1027D00089FFFFF78BFFC0E710BD10B510480468F4
:1027E000012000F027F8012000F041F80D48E4B284
:1027F0000F2101FB0402E4B221000B4800F052F863
:102800004FF47A7000F07BF8EDE700000CED00E08B
:102810000400FA05983B0000703C0000F03B00000B
:1028200004ED00E01004FF1F343B0000002848BF07
:102830004042704710B5040064B2042C07DA01224C
:102840000121174864B2205C00F0E4F90EE0042096
:1028500004002000441E40B2002807D001220121BC
:102860000F4864B2205C00F0D5F9F2E710BD10B556
:10287000040064B2042C05DA094864B2205C00F05C
:1028800020FA0CE0042004002000441E40B200287E
:1028900005D0034864B2205C00F013FAF4E710BDE1
:1028A000C80BFF1F0EB400B582B003A90091024609
:1028B00000AB0121034878440A30FDF7ADFD06BCAA
:1028C0005DF810FB8913000010B50400002C15D032
:1028D000B4F1807F03D329210F48FFF714FF0020B4
:1028E0000E4908600E48046000200E49086005206B
:1028F0000A49086009480068C003FBD510BD10B53F
:1029000004002000441E002804D007480068FFF798
:10291000DBFFF6E710BD0000E438000010E000E047
:1029200014E000E018E000E0000EFF1F2DE9F8437E
:1029300004000D0064B2002C08D0022C2CD018D357
:10294000042C4FD03BD3052C5FD071E0DFF8100290
:10295000006850F48060DFF8081208604FF440719E
:102960000F20FFF763FE4FF440710E20FFF75EFE6D
:102970005EE0DFF8EC01006850F40060DFF8E01181
:1029800008604FF440714320FFF750FE4FF4407150
:102990004420FFF74BFE4BE0DFF8C401006850F421
:1029A0008050DFF8BC1108604FF440716320FFF7DE
:1029B0003DFE4FF440716220FFF738FE38E0DFF84B
:1029C000A001006850F40050DFF8941108604FF443
:1029D00040718520FFF72AFE4FF440718420FFF7F5
:1029E00025FE25E0DFF87C01006850F48060DFF808
:1029F000741108604FF440714E20FFF717FE4FF43A
:102A000040714F20FFF712FE12E0DFF85801006816
:102A100050F40060DFF84C1108604FF440718920D9
:102A2000FFF704FE4FF440718820FFF7FFFDFFE73A
:102A3000DFF8340164B250F82400C07810F0F300DD
:102A4000DFF8241164B251F82410C870DFF81801BF
:102A500064B250F824008078DFF80C1164B251F8A9
:102A60002410887064B2002C02D064B2012C07D10B
:102A7000DFF8F80000684FF47A714843814606E0B9
:102A8000DFF8EC0000684FF47A7148438146280172
:102A9000B9FBF0F00600B6B2B6F5005F02DB41F616
:102AA000FF700600B9FBF5F0B6B2B0EB06100700F8
:102AB000BFB2202F03DBDC212E48FFF724FE2A487B
:102AC00064B250F82400007810F0E0008046B6B2FE
:102AD000300A10F01F0050EA0800234964B251F890
:102AE00024100870204864B250F8240046701E4834
:102AF00064B250F82400807A10F0E000804617F0AD
:102B00001F0050EA0800184964B251F82410887276
:102B1000154864B250F82400007C50F08800124937
:102B200064B251F8241008740F4864B250F82400BD
:102B3000C07850F00C000C4964B251F82410C870F1
:102B4000BDE8F183084A40B252F8202012791206FB
:102B5000F8D5054A40B252F82020D17170470000E4
:102B60003480044028800440A80BFF1F000EFF1F84
:102B7000080EFF1F483A000010B5040064B2082C8C
:102B80000DDA00220021224864B2205C00F042F8F5
:102B900003211F4864B2205CFFF76AFD14E008209F
:102BA00004002000441E40B200280DD00022002165
:102BB000174864B2205C00F02DF80321144864B279
:102BC000205CFFF755FDECE710BD10B50400104880
:102BD00064B2205C00F091F8002801D1002000E0F0
:102BE000012010BD10B50400200040B2FFF7EDFF3A
:102BF00000280AD10A20FFF782FE200040B2FFF72A
:102C0000E4FF002801D1002000E0012010BD0000F9
:102C1000C00BFF1F70B504000D0016004FF480714B
:102C20002000C0B2FFF702FD6DB2002D11D1414866
:102C3000E4B2611150F821003E49E4B2621151F84A
:102C400022104969012214F01F039A409143416107
:102C500036E03848E4B2611150F821003549E4B259
:102C6000621151F822104969012214F01F039A40A1
:102C700011434161F6B2002E11D12E48E4B2611128
:102C800050F821000068012114F01F029140884390
:102C90002849E4B2621151F82210086010E025487A
:102CA000E4B2611150F821000068012114F01F0204
:102CB000914008431F49E4B2621151F822100860A4
:102CC00070BD10B504001B48E4B2611150F821003A
:102CD000406914F01F01C840C00703D47B21164887
:102CE000FFF711FD1348E4B2611150F821000121F2
:102CF00014F01F029140C16010BD10B504000D48D2
:102D0000E4B2611150F82100406914F01F01C8407D
:102D1000C00703D58C210848FFF7F5FC0548E4B24D
:102D2000611150F82100006914F01F01C84010F033
:102D3000010010BD180BFF1F40390000DFF800F044
:102D4000AD0DFF1FDFF8981340B231F8201040B2EC
:102D50000128C0F26A8140B2162880F26681002202
:102D6000DFF880331A7089B23D2904DA0022DFF8D7
:102D700074335A7077E089B2792904DA0122DFF8D6
:102D800064335A706FE089B2B52904DA0222DFF8A1
:102D900054335A7067E089B2F12904DA0322DFF86C
:102DA00044335A705FE089B2B1F5967F04DC0422A7
:102DB000DFF830335A7056E089B2B1F5B47F04DCE5
:102DC0000522DFF820335A704DE089B2B1F5D27F89
:102DD00004DC0622DFF80C335A7044E089B2B1F506
:102DE000F07F04DC0722DFF8FC325A703BE089B246
:102DF000B1F5077F04DC0822DFF8E8325A7032E0D0
:102E000089B2B1F5167F03DC0922B64B5A702AE06D
:102E100089B2B1F5257F03DC0A22B24B5A7022E059
:102E200089B2B1F5347F03DC0B22AE4B5A701AE045
:102E300089B2B1F5437F03DC0C22AA4B5A7012E031
:102E400089B2B1F5527F03DC0D22A64B5A700AE01D
:102E500089B2B1F5617F03DC0E22A24B5A7002E009
:102E60000F22A04B5A7089B21A2903DA00229D4B17
:102E70009A7069E089B2332903DA0122994B9A707A
:102E800062E089B24C2903DA0222964B9A705BE029
:102E900089B2652903DA0322924B9A7054E089B211
:102EA0007E2903DA04228F4B9A704DE089B297296C
:102EB00003DA05228B4B9A7046E089B2B02903DA17
:102EC0000622884B9A703FE089B2C92903DA0722AB
:102ED000844B9A7038E089B2E22903DA0822814BE8
:102EE0009A7031E089B2FB2903DA09227D4B9A708E
:102EF0002AE089B2B1F58A7F03DA0A22794B9A7007
:102F000022E089B2B1F5967F03DC0B22754B9A70F3
:102F10001AE089B2B1F5A37F03DA0C22714B9A70E3
:102F200012E089B2B1F5AF7F03DC0D226D4B9A70D0
:102F30000AE089B2B1F5BC7F03DA0E22694B9A70C0
:102F400002E00F22674B9A7089B21A2903DA002235
:102F5000644BDA7069E089B2332903DA0122614BEC
:102F6000DA7062E089B24C2903DA02225D4BDA7032
:102F70005BE089B2652903DA03225A4BDA7054E028
:102F800089B27E2903DA0422564BDA704DE089B209
:102F9000972903DA0522534BDA7046E089B2B0294B
:102FA00003DA06224F4BDA703FE089B2C92903DA0F
:102FB00007224C4BDA7038E089B2E22903DA0822A2
:102FC000484BDA7031E089B2FB2903DA0922454B1C
:102FD000DA702AE089B2B1F58A7F03DA0A22414B1E
:102FE000DA7022E089B2B1F5967F03DC0B223D4B0B
:102FF000DA701AE089B2B1F5A37F03DA0C22394BFB
:10300000DA7012E089B2B1F5AF7F03DC0D22354BE7
:10301000DA700AE089B2B1F5BC7F03DA0E22314BD7
:10302000DA7002E00F222F4BDA70704710B50400FF
:10303000200040B2FFF786FE2B48007810F0FD001C
:10304000294908702848007850F010002649087077
:10305000B8202649087026480078C006FBD42448CA
:103060000078C0F38100C0B20228F8D11D48C378AF
:103070001C4882781B4841781A480078FFF75EFEAA
:10308000174864B210EB8400807810F007001949EB
:103090000870134864B210EB8400C07810F01F0071
:1030A00050F0400014490870114800788006FBD5A4
:1030B0000F4800784006FBD50C48007810F03F0020
:1030C0000A4908700A480078C0F38100C0B203289A
:1030D000F8D1034864B230F82400C0B210BD00003B
:1030E0002C0BFF1F840BFF1F0140064000400640D1
:1030F000064006400440064005400640DFF800F068
:1031000007270000DFF800F0FF280000F0205449F6
:103110000870534800780006FBD5514800787121AB
:10312000084201D0002000E00120704780B54D48E2
:10313000006850F400204B490860494800780006B8
:10314000FBD5F020464908700A20FFF7DBFF01BDE0
:1031500010B582B00400A4B24FF4805000FB04F01C
:1031600000900920404908709DF802003F4908700E
:103170009DF801003E4908709DF800003D49087027
:10318000FFF7C4FF002801D100200EE0A4B2002CFC
:103190000AD15FF0FF327FF001034FF4816120001C
:1031A00080B200F003F800E0012016BDF0B583B056
:1031B00006000F0014001D00B6B24FF48050BFB2DD
:1031C00000FB06700190BFB2082097FBF0F101FBF5
:1031D0001071002903D0EA212748FFF78FFFBFB203
:1031E000B7F5805F03DDEC212348FFF787FF9DF8EB
:1031F00006001E4908709DF805001D4908709DF8DD
:1032000004001C49087000949DF803001B490870D5
:103210009DF802001A4908709DF8010019490870CC
:103220009DF800001849087007200F4908700095A4
:103230009DF80300154908709DF8020014490870B4
:103240009DF80100134908709DF8000012490870AC
:10325000FFF75CFF002801D1002000E00120FEBD47
:103260000000024004F00140070002400600024056
:1032700005000240040002402C3800000B00024010
:103280000A00024009000240080002400F0002400C
:103290000E0002400D0002400C000240F0B4114E3E
:1032A000366834000F4E366856F47F060D4F3E6088
:1032B0000E0616F0706656EA0076170517F47007CA
:1032C0003E431F0417F470273E43074F3E6000261D
:1032D0003500EDB29D4201D26D1CFAE7014E34601B
:1032E000F0BC704700F001404480044080B500F01D
:1032F00095F800F02AF800F00AF8FFF721FA012209
:1033000001210420FFF786FC00F0B2F8FEE780B54B
:103310000420FFF78BFE33490860324800684FF401
:103320007A714843304908602F4800682F4909687E
:10333000C1F30361491CB0FBF1F02D4908605FF453
:10334000E1310420FFF7F2FA01BD2DE9F8432948E5
:10335000294988420DD000208046B8F5826F08D2F6
:10336000254850F82800234941F8280018F10108A1
:10337000F3E7204800F0BAF820480700204806008C
:1033800020480400A01B80464046B0F101080028F8
:1033900004D030783870761C7F1CF5E71A488146D7
:1033A0001A480500B5EB090080464046B0F1010817
:1033B000002805D0002089F8000019F10109F4E780
:1033C00013481449144A531A98464346B3F1010866
:1033D000002B04D00B780370491C401CF5E7BDE8B6
:1033E000F1830000040EFF1F000EFF1F4480044005
:1033F000080EFF1F0000FF1F000000001004FF1F49
:10340000C8190000C4210000FC0DFF1F600EFF1F43
:103410000C0CFF1FFC300000EC32000080B500F007
:1034200008F80C4800884FF6FE71084009490880EA
:1034300001BDEFF3118072B64CF22051064A1180A3
:103440004DF62811044A1180C0B2002800D162B69E
:1034500070470000002005400E200540012110F0BB
:103460001F0291401D4A40B2430942F823107047A1
:1034700080B51B480068052101FB00F1002000F029
:103480005DF817480068142101FB00F1012000F0ED
:1034900055F80FF22501542000F039F80FF22D01F4
:1034A000552000F034F84420FFF7D8FF4520FFF7FF
:1034B000D5FF00F0A8F8FEE780B500F0D3F8094882
:1034C000006850F001000749086001BD0648006827
:1034D00050F00100044908607047000000E100E07E
:1034E000080EFF1F0C7103401C71034010B504004F
:1034F0004FF4007094FBF0F101FB1041002903D060
:103500001E210B48FFF7FFF80A48046010BD38B5CC
:1035100004000D00074800680749884203D03021A5
:103520000348FFF7F0F8044864B240F8245031BD76
:10353000A03A000008ED00E00000FF1F38B50400CD
:103540000D00002D03D122211748FFF7DCF81748A2
:10355000006850F400001549086000201449086014
:10356000681E144964B222015050124864B210EB34
:103570000410C06850F001000E4964B211EB041150
:10358000C8600C4864B210EB04108068400840002A
:10359000084964B211EB041188600320054964B244
:1035A00011EB0411886031BD983900003C80044063
:1035B000007003400071034030B583B004000D007B
:1035C0008DF804400220009001AB01AA01210120E6
:1035D000FEF792FF9DF8050028709DF804003EBD9F
:1035E00030B583B004000D008DF804408DF805500F
:1035F0000220009001AB01AA01210120FEF77CFF0F
:103600009DF804003EBD80B5284B00220121012019
:10361000FEF7D8FD40F2DC5000F056F80F212020D4
:10362000FFF7DEFF642000F06FF803212120FFF791
:10363000D7FF642000F068F8A8212220FFF7D0FF10
:10364000642000F061F810212320FFF7C9FF6420F7
:1036500000F05AF80F212420FFF7C2FF642000F089
:1036600053F801BD80B51249AC20FFF7A5FF114901
:10367000AD20FFF7A1FF0E4840780D49097851EAC7
:1036800000200D4908800C48B0F90000FEF718F83A
:1036900000220A4BFDF708FE0022094BFDF7D6FE7B
:1036A00000F07CF80749086001BD0000D01213004B
:1036B0005E0EFF1F5F0EFF1F5C0EFF1F008031407C
:1036C00000408F40FC0DFF1F80B200281BD02E4908
:1036D000096851F001012C4A116000212C4A116047
:1036E00080B22D49086005212A4A11600121284A2B
:1036F0001160274909680906FBD525490968490869
:103700004900234A1160704710B50400A4B232206A
:1037100000FB04F01030202190FBF1F0B0F5803F69
:1037200003DBD7211948FEF7EEFFA4B2002C28D006
:103730001448007850F08000124908701248006860
:1037400050F0010010490860002011490860A4B23F
:10375000322000FB04F01030202190FBF1F00E49E4
:10376000086023200B4908600120094908600848C7
:1037700000680006FBD50648006840084000044980
:10378000086010BD005006403880044088380000B2
:103790000000044004000440080004404FEAF17CAB
:1037A000BCF1E04C2CBFBCF5001F11E05FEA4C0CF3
:1037B00034BFBCF17F5F2EE05FEA9C0C4FEA0C1C2B
:1037C0004FEA3C0CC10071F100414CEB5070704766
:1037D000C90241EA5051C00218BF41F0010141F055
:1037E00000414FEA6C50C0F10900212810D240EA94
:1037F000CC7CCCF1200C11FA0CF070F10040CCF133
:10380000200C21FA0CF00CF0004C40EB0C0070473F
:103810004FEACC707047490011F5001F04D84FEAF9
:10382000CC10FF30C0057047C8177047453A5CD6CA
:10383000C7C4DCB3B55CB5DAC8FDBDB25CB5DAC8E7
:10384000FDB4CEC5E0D1B520535049BACD55415253
:10385000545CB5DAB6FEB4CEC5E0D1B520535049BC
:1038600020554152545CC1B7CFB0B4FAC2EB5C43AF
:103870006869705C7372635C4D4B36305F666C6177
:1038800073682E6300000000453A5CD6C7C4DCB301
:10389000B55CB5DAC8FDBDB25CB5DAC8FDB4CEC55D
:1038A000E0D1B520535049BACD554152545CB5DAF8
:1038B000B6FEB4CEC5E0D1B5205350492055415293
:1038C000545CC1B7CFB0B4FAC2EB5C436869705CBA
:1038D0007372635C4D4B36305F6C70746D722E6327
:1038E00000000000453A5CD6C7C4DCB3B55CB5DA6D
:1038F000C8FDBDB25CB5DAC8FDB4CEC5E0D1B52017
:10390000535049BACD554152545CB5DAB6FEB4CEE7
:10391000C5E0D1B52053504920554152545CC1B740
:10392000CFB0B4FAC2EB5C436869705C7372635CDD
:103930004D4B36305F5379735469636B2E630000CF
:10394000453A5CD6C7C4DCB3B55CB5DAC8FDBDB2D8
:103950005CB5DAC8FDB4CEC5E0D1B520535049BA44
:10396000CD554152545CB5DAB6FEB4CEC5E0D1B502
:103970002053504920554152545CC1B7CFB0B4FADE
:10398000C2EB5C436869705C7372635C4D4B3630AC
:103990005F6770696F2E6300453A5CD6C7C4DCB3BD
:1039A000B55CB5DAC8FDBDB25CB5DAC8FDB4CEC54C
:1039B000E0D1B520535049BACD554152545CB5DAE7
:1039C000B6FEB4CEC5E0D1B5205350492055415282
:1039D000545CC1B7CFB0B4FAC2EB5C436869705CA9
:1039E0007372635C4D4B36305F5049542E63000058
:1039F000453A5CD6C7C4DCB3B55CB5DAC8FDBDB228
:103A00005CB5DAC8FDB4CEC5E0D1B520535049BA93
:103A1000CD554152545CB5DAB6FEB4CEC5E0D1B551
:103A20002053504920554152545CC1B7CFB0B4FA2D
:103A3000C2EB5C436869705C7372635C4D4B3630FB
:103A40005F7370692E630000453A5CD6C7C4DCB36F
:103A5000B55CB5DAC8FDBDB25CB5DAC8FDB4CEC59B
:103A6000E0D1B520535049BACD554152545CB5DA36
:103A7000B6FEB4CEC5E0D1B52053504920554152D1
:103A8000545CC1B7CFB0B4FAC2EB5C436869705CF8
:103A90007372635C4D4B36305F756172742E6300D8
:103AA000453A5CD6C7C4DCB3B55CB5DAC8FDBDB277
:103AB0005CB5DAC8FDB4CEC5E0D1B520535049BAE3
:103AC000CD554152545CB5DAB6FEB4CEC5E0D1B5A1
:103AD0002053504920554152545CC1B7CFB0B4FA7D
:103AE000C2EB5C436869705C7372635C6D6973639D
:103AF0002E63000002000000040000000600000029
:103B0000080000001000000020000000400000003D
:103B1000800000000001000000020000000400001E
:103B2000000800000010000000200000004000001D
:103B3000008000000A2A2A2A2A64656661756C746E
:103B40005F69737220656E7465726564206F6E20A4
:103B5000766563746F722025642A2A2A2A2A0A0A43
:103B6000257320496E7465727275707400000000D0
:103B700010B5074979441831064C7C44163404E0EA
:103B80000A68081D511888470146A142F8D110BDA6
:103B9000500000005C000000417373657274696F2F
:103BA0006E206661696C656420696E2025732061F2
:103BB00074206C696E652025640A00004EF68851F9
:103BC000CEF20001086840F470000860BFF34F8F28
:103BD000BFF36F8F4FF00070E1EE100A70470000E6
:103BE00027D4FFFF64000000FC0DFF1F0000000051
:103BF0000ABDF8D0D0BDE2CBF8B2D9D7F7A3ACC795
:103C0000EBD6D8D0C2CBA2C8EBB9CCBCFE0000002A
:103C100000F00BF8002801D0FFF7AAFF0020C046F3
:103C2000C046FFF725FC00F002F80120704700F0C5
:103C300001B800000746384600F002F8FBE7000034
:103C40002021090326311820ABBEF9E738B5044618
:103C50000D46284600F006F8A84218BF002420466A
:103C600032BD00000149FEF761BD00BFCC0BFF1F54
:103C70000ABDF8C8EBCBC0D1ADBBB7B5C8B4FDA386
:103C8000A1000000C046C046FFF798FFFFF7C0FF45
:103C90000203050700000000000000000000000013
:103CA0000000000000000000000000000000000014
:103CB000FFFFFFFFFFFFFFFF00000000000000000C
:103CC00000000000000000000000000000000000F4
:103CD000000000000000000000000000FFFFFFFFE8
:103CE000FFFF0000000000000000000000000000D6
:103CF00000000000000000000000000000000000C4
:103D000000000000000000000000000000000000B3
:0C3D1000000000000000000000000000A7
:0400000500003C8536
:00000001FF
